:020000040800F2
:1000000000200020210E0008090D00080D0D000839
:1000100000000000000000000000000000000000E0
:10002000000000000000000000000000110D0008AA
:100030000000000000000000150D0008190D000868
:10004000710E0008710E0008710E0008710E000894
:10005000710E0008710E0008710E0008350D0008C1
:1000600000000000550D0008710E0008710E000818
:10007000710E0008710E0008710E0008710E000864
:10008000710E0008710E0008710E0008710E000854
:1000900000000000710E0008710E0008710E0008CB
:1000A000710E0008710E0008710E0008710E000834
:0C00B000710E0008710E00080000000036
:1000BC0010B5064C2378002B07D1054B002B02D032
:1000CC00044800E000BF0123237010BD280100206C
:1000DC00000000007C4A0008044B10B5002B03D034
:1000EC000349044800E000BF10BDC04600000000FA
:1000FC002C0100207C4A00080023C25C0133002A3A
:10010C00FBD1581E7047000003B4714649084000EB
:10011C004900095E49008E4403BC70470022430825
:10012C008B4274D303098B425FD3030A8B4244D3B3
:10013C00030B8B4228D3030C8B420DD3FF220902F5
:10014C0012BA030C8B4202D31212090265D0030BB4
:10015C008B4219D300E0090AC30B8B4201D3CB03AA
:10016C00C01A5241830B8B4201D38B03C01A5241EC
:10017C00430B8B4201D34B03C01A5241030B8B42EE
:10018C0001D30B03C01A5241C30A8B4201D3CB02D9
:10019C00C01A5241830A8B4201D38B02C01A5241BE
:1001AC00430A8B4201D34B02C01A5241030A8B42C1
:1001BC0001D30B02C01A5241CDD2C3098B4201D3D9
:1001CC00CB01C01A524183098B4201D38B01C01A57
:1001DC00524143098B4201D34B01C01A52410309CE
:1001EC008B4201D30B01C01A5241C3088B4201D37D
:1001FC00CB00C01A524183088B4201D38B00C01A2A
:10020C00524143088B4201D34B00C01A5241411A50
:10021C0000D20146524110467047FFE701B500205D
:10022C0000F0F0F802BDC0460029F7D076E7704721
:10023C0003460B437FD4002243088B4274D303093B
:10024C008B425FD3030A8B4244D3030B8B4228D3DC
:10025C00030C8B420DD3FF22090212BA030C8B4202
:10026C0002D31212090265D0030B8B4219D300E0A2
:10027C00090AC30B8B4201D3CB03C01A5241830B27
:10028C008B4201D38B03C01A5241430B8B4201D3D7
:10029C004B03C01A5241030B8B4201D30B03C01A00
:1002AC005241C30A8B4201D3CB02C01A5241830A7A
:1002BC008B4201D38B02C01A5241430A8B4201D3A9
:1002CC004B02C01A5241030A8B4201D30B02C01AD3
:1002DC005241CDD2C3098B4201D3CB01C01A52413A
:1002EC0083098B4201D38B01C01A524143098B42C3
:1002FC0001D34B01C01A524103098B4201D30B01AC
:10030C00C01A5241C3088B4201D3CB00C01A5241D0
:10031C0083088B4201D38B00C01A524143088B4295
:10032C0001D34B00C01A5241411A00D2014652412E
:10033C00104670475DE0CA0F00D04942031000D34D
:10034C004042534000229C4603098B422DD3030AA2
:10035C008B4212D3FC22890112BA030A8B420CD3B2
:10036C00890192118B4208D3890192118B4204D3DB
:10037C0089013AD0921100E08909C3098B4201D35B
:10038C00CB01C01A524183098B4201D38B01C01A95
:10039C00524143098B4201D34B01C01A524103090C
:1003AC008B4201D30B01C01A5241C3088B4201D3BB
:1003BC00CB00C01A524183088B4201D38B00C01A68
:1003CC005241D9D243088B4201D34B00C01A52413F
:1003DC00411A00D20146634652415B10104601D3CC
:1003EC004042002B00D54942704763465B1000D356
:1003FC00404201B5002000F005F802BD0029F8D0FC
:10040C0016E770477047C046002B15D1002A13D150
:10041C00002906DB01DC002806D00020C04341087F
:10042C0002E080210906002007B4024801A140180F
:10043C00029003BDD1FFFFFF03B4684601B50298DB
:10044C0000F034F8019B9E4602B00CBC7047C046CD
:10045C00F0B5CE469946030C9C46130447461B0C3C
:10046C001D000E0061460404240C80B50700100C1E
:10047C004B436543414360432C0CC01824188C46F5
:10048C00A34203D980235B029846C444494679436E
:10049C005643230C2D042D0C891963442404601934
:1004AC00C918C0BCB946B046F0BDC046F8B5CE467A
:1004BC00474680B59146984604000D0000F014F8AC
:1004CC0007000E0002000B0048464146FFF7C0FF34
:1004DC00241A8D41089B380031001C605D60C0BC43
:1004EC00B946B046F8BDC046F0B5D6464F4646466E
:1004FC00C0B504000D001000190082B0002D00DA08
:10050C0087E0002B0BDB16001F00AB4219D9002033
:10051C00002102B0E0BCBA46B146A846F0BD0027A7
:10052C0046428F41AF4204D800D082E0A64200D8A8
:10053C007FE0002000218FE0002746428F419F4240
:10054C00E5D8AF4200D198E000239946390030003D
:10055C0000F0BCF880462900200000F0B7F84346B4
:10056C001B1A9846203B00D57CE0310099409A46F6
:10057C000B003100404681400A00AB425FD85CD092
:10058C005146A41A9D41002900DA93E00021002075
:10059C0001260090019151468E400196414601265C
:1005AC008E4041460096002950D0D90756080E437C
:1005BC005F084146012200230CE0AF4201D1A64264
:1005CC000AD8A41BBD4124196D410139A4185D4101
:1005DC00002906D0AF42F0D9013924196D41002908
:1005EC00F8D100980199534600196941002B48DB5A
:1005FC002E002C00DE404346DC405346002B50DBE3
:10060C0034009C4023004446A6403200801A994195
:10061C001EE000236242AB4114001D0000298BDB5D
:10062C0006000F00994200D971E702D1904200D91F
:10063C006DE701235B42994688E7A142A0D90021CE
:10064C0000200090019141460029AED100980199FB
:10065C004B46002B00D15CE703000C0000215842F4
:10066C00A14156E7424638009A462023310090407B
:10067C009B1AD94003000B437BE7A64200D863E7E3
:10068C0045E7424620239B1A2A009A402600130075
:10069C004246D6402C001E434346DC405346002BBA
:1006AC00AEDA42462023350094409B1ADD402300ED
:1006BC002B43A8E7414620260127761A002000216B
:1006CC00F74000900191019768E7C04610B50029EA
:1006DC0003D100F007F8203002E0080000F002F827
:1006EC0010BDC0461C2101231B04984201D3000CF1
:1006FC0010391B0A984201D3000A08391B09984289
:10070C0001D30009043902A2105C40187047C0469E
:10071C0004030202010101010000000000000000BE
:10072C000721234A10B513688B4305390B4313601B
:10073C00053113680B40022BFBD11E4AFE331168A6
:10074C000B4380211360C90013680B42FCD0D168A5
:10075C00194B1940194B0B43D360802311685B0470
:10076C000B4313608023D1685B050B438021D3605E
:10077C00104A890413680B42FCD0936810490B4053
:10078C000721936093688B4305390B439360094AA7
:10079C00363193680B40102BFBD1936809490A48FA
:1007AC000B40936002F006F8074802F02BF810BDDE
:1007BC0000200240001002408C80FF1F0208002025
:1007CC00FFF0FFFFFF8FFFFF0090D0038022F0B5FA
:1007DC00DE46454657464E46FC4B52001968E0B57E
:1007EC000A431A608022196892000A431A60012297
:1007FC00F74BC025196CCFB011431964196CF54C2B
:10080C000A4080211492149ADA6B49050A43DA6380
:10081C00DB6B2D060B401393139B236A1B021B0AE5
:10082C002B432362FFF77CFFFA21EB4B89001868FE
:10083C00FFF774FC802301385B0498420AD2E74A24
:10084C005060236A1B021B0A1D4300232562936020
:10085C000733136000251822002130A8279503F0D8
:10086C0034FADB4B022799464A465B6BDC493B4327
:10087C005363536B26AC3B401A931A9B536B012268
:10088C00904613434A465363536B424613401B93A3
:10089C001B9BA023DB059A619A461A00082350463D
:1008AC0093612022564682618020B0614A6ECD4B06
:1008BC0046461A4080235B0413434B6626902671F0
:1008CC0080262000A77101F099FCC749C74ACB6864
:1008DC00F60113403343CB600B685046134042463D
:1008EC000B6030923192023293463292424630A9DA
:1008FC003492339501F0E0FC4146319159463291E6
:10090C00414608233491504630A93093339501F079
:10091C00D3FC424631925A462021329242463091C3
:10092C00504630A93492339501F0C6FC42463192C0
:10093C005A46802032924246309030A9504634922A
:10094C00339501F0B9FCC1218020A94B89005A587C
:10095C0000061202120A02435A50802018604A46BE
:10096C004146926BA3480A4349468A638A6B4146C7
:10097C000A40C22119928900199A5A58024016430A
:10098C005E50802292001A60D93A0021FF3A30A8BA
:10099C0003F09BF90C22002129A803F096F9494693
:1009AC0080220B6C520113430B640B6C50461340AA
:1009BC001793179B4B6B41460B4349464B634B6B51
:1009CC0041460B40189302225946189B022326924B
:1009DC002793A160210001F06FFC5E460421269153
:1009EC006760A660002700262100E56050462A9625
:1009FC002B9701F061FC4023022126935B4661603A
:100A0C00A3602100E56050462A962B9701F054FC18
:100A1C003F218027784A103613688B432E390B43BD
:100A2C001360764B76491A680A4032431A601A688A
:100A3C00744910360A401A601A68B2431A601A6870
:100A4C002036B2431A601A686F4EBA433A431A60A2
:100A5C0019686E4A30001140802252000A431A6015
:100A6C0019686B4A11408022D2000A431A60822313
:100A7C005B0031938022E0239200DB0032933592AD
:100A8C00072300223892399330AA11003095339500
:100A9C0034953695379501F093FC10200822736835
:100AAC00002183437360736802A81343736020AB07
:100ABC0084469B467A23634418000A3203F005F9F6
:100ACC0030AB18002022002103F0FFF8182200217F
:100ADC00200003F0FAF84B4602214E46DB6B0B4329
:100AEC00F363F36B5E460B401593159B494B5946CC
:100AFC0033809F23B360484E300001F0A1FC0822E4
:100B0C0033680121BB43454F33603B6830001343CE
:100B1C003B60602330930433339330AB1A00319530
:100B2C003295349501F0DAFC042070223B680221E6
:100B3C0083433B60802773680C3093437360B368C6
:100B4C000022BB43B3604B464F465B6B0B437B634E
:100B5C007B6B26900B401693169B01236160A5605E
:100B6C002100E56020482A922B9301F0A5FB2C4E26
:100B7C001CA8030032001096814683CA83C31268F6
:100B8C00202711921A60204A264B0BA926922793F4
:100B9C004346A360534627824746E3606361E361A3
:100BAC00A0232783204F5B009A463B6808229C4673
:100BBC000B004946228445C945C30221119A60465F
:100BCC001A601A4B0A910994089331E000200240F4
:100BDC000010024000ED00E00000002010E000E0FA
:100BEC0000180240FFFFFFF800040050FF3FFFFF1A
:100BFC0000E100E0FF00FFFF000802400800024097
:100C0C00EFBFFFFFFFCFFFFF00300140FFFCFFFFF6
:100C1C00FFF3FFFFE703000000040040180400404E
:100C2C00944A000800000240C8010020012200087C
:100C3C002A4B524607932A4B04910693294B30A911
:100C4C00059353460193503B00930395029500F096
:100C5C00A7FA0400386000F0E3FBFF21200000F04D
:100C6C006FFDFF22204F91460292204A0A21204B11
:100C7C0090462000019203950022009701F04AFA59
:100C8C00FA20C00001F0A6FD5B46109E103607CE80
:100C9C0007C307CE07C3174E5A461421300002F083
:100CAC00C5FD4A4602924246134B0A21200001928E
:100CBC0003951922009701F02DFAFA20C00001F0DB
:100CCC0089FD2100300001F01FFE2100300002F0F0
:100CDC00ABF92100300002F0E5FAFEE7F92100083B
:100CEC00D9210008A92100080400002000FFFF0002
:100CFC00084B000848010020184B0008FEE7C046CE
:100D0C00FEE7C0467047C0467047C046044B10B55E
:100D1C00186802F0E5FD034A13680133136010BD37
:100D2C00CC010020C00100208022054B10B51969B0
:100D3C000A4204D01A61034B186802F0ABFD10BDD7
:100D4C0000180240CC01002010B50121014800F030
:100D5C00E5F810BD000002400120704710B503F00B
:100D6C000BF8162303600120404210BD10B503F0B0
:100D7C0003F816230360FEE770B5161E07DD0C00A2
:100D8C008D1800E000BF20700134AC42F9D1300066
:100D9C0070BDC04670B5161E07DD0C008D1820788E
:100DAC00013400E000BFAC42F9D1300070BDC04648
:100DBC00012040427047C04680239B0100204B60BD
:100DCC007047C04601207047002070470C490D4AFF
:100DDC000300521A0C4910B50868002804D0C31837
:100DEC00934206D80B6010BD0848C31808609342A4
:100DFC00F8D902F0C1FF0C23036001204042F2E756
:100E0C000004000000200020C4010020200300206A
:100E1C007047C0460D488546FFF7FAFF0C480D4950
:100E2C000D4A002302E0D458C4500433C4188C4239
:100E3C00F9D30A4A0A4C002301E013600432A2429F
:100E4C00FBD302F09FFFFFF7C1FCFEE70020002060
:100E5C000000002024010020E85800082801002090
:100E6C001C030020FEE7000070B5150004AA040066
:100E7C000020105E994231D0AC421CD02A1B401A83
:100E8C005043591AFFF7D4F9069A03191BB2138071
:100E9C00059A1380221CAC4200DD2A1C12B29A4225
:100EAC001EDC221CAC4222DB12B2D017D90F9A42A4
:100EBC004841C0B270BD0A1C994213DC12B2824286
:100ECC000EDC0A1C994200DA1A1C12B2824207DBB1
:100EDC00069B01201C80059B1C80EBE7814208D0FF
:100EEC000020E7E71A1C12B28242EADDF8E72A1C5E
:100EFC00DAE7231CAC420FDC059A1380231CAC42AE
:100F0C0008DB069A02201380079B079A1B78013393
:100F1C001370CFE72B1CF4E72B1CEDE701234A1EC3
:100F2C009200934030B5446823434360294B1B68BF
:100F3C00002B05D09A6A904203D01B6F002BF9D17D
:100F4C0030BDDA6A9142F8D11D6C002D04D04422D8
:100F5C006C699A5A1442F0D18A00511889000C39E4
:100F6C00411801200A6882430A6004000A68144090
:100F7C001042FAD11A6E002A16D10220596A4A6818
:100F8C0082434A607E308A681042FCD165229A5CAA
:100F9C00002A04D1002D02D044329B5AAB6140226E
:100FAC000B6893430B60CBE78022186E5202904281
:100FBC0007D21A6E4A601C6601220B6813430B6041
:100FCC00BEE70548054A84464A601A6E62441A66B2
:100FDC00F2E7C046C80100200100FFFFFFFF000040
:100FEC0030B5046B002C1DD0858E80211A202B046B
:100FFC000D4AA36113684902002805D013680B42FF
:10100C00FCD001380028F9D18021074AA5611A309B
:10101C0013684902002805D013680B42FCD0013834
:10102C000028F9D130BDC04610E000E0F0B54546CF
:10103C00DE4657464E4604004022E0B5456A83B072
:10104C002B681A42FCD16523E35C002B06D1236C80
:10105C00002B03D04422A25A12049A612B684D4AE9
:10106C004D4E13402B606B684C4A13406B60E02371
:10107C006A68DB00134340226B602B6813432B60C0
:10108C0002239C460B78012B4FD0022B00D16FE032
:10109C00002B14D06523E35C002B05D1236C002BB3
:1010AC0002D04422A25A9A6140222B6893432B60AF
:1010BC0003B0F0BCBB46B246A946A046F0BDA26B3D
:1010CC00487890464746A28F636A1204BA61187337
:1010DC0060469A681042FBD080209A681042FCD17E
:1010EC008B78CA1C002B52D090464344994602215F
:1010FC00802043461A78A76B0192BA46A78F636A81
:10110C00BB4657465A46BA61019A1A739A681142FD
:10111C00FCD09A681042FCD101239A46D044C145B8
:10112C00E7D149460B78012BAFD14B788A1C002BA9
:10113C002DD091464B449846022080214B461A787C
:10114C00A76B0192BA46A78F636ABB4657465A46AD
:10115C00BA61019A1A739A681042FCD09A681142CB
:10116C00FCD101239A46D144C845E7D1414689E7D1
:10117C004A7833680132002A07D080203368400255
:10118C000342FAD0013A002AF7D102317AE7110072
:10119C0078E7C046FF5BFFFF10E000E0FFF0FFFFC9
:1011AC00F0B557464E464546DE46E0B585B01E00C6
:1011BC000EAB1B88170099460FAB1B880C009A4688
:1011CC0010AB00229B5E0190984611AB00229B5EF7
:1011DC00029312AB1B789B4618AB1B781D00039334
:1011EC00002900D1B6E000217422200002F06DFD30
:1011FC0048232200E554179B243223CB23C223CB54
:10120C0023C223CB23C2A36A002B26D0E16A019D03
:10121C008A005218012192009B180C3B1A688A43D1
:10122C001A601A681142FCD11A68564901950A4095
:10123C001A60039A022A00D181E00C211A688A43B1
:10124C001A601A680A390A431A601A683E318A43CE
:10125C001A601A6840310A431A60321CBE4268D3C5
:10126C0092B2331CBE425ED859469BB2002945D17E
:10127C004946218051466180414661810299A38093
:10128C00E280A1814B4560D852455ED8139B002B60
:10129C005BD0149B002B58D05B462372139B19AA6E
:1012AC006361149BA361159BE361169B236223006E
:1012BC004C3343CA43C312681A6000236422A354FC
:1012CC002367E366019B002B10D01B6F002B0AD009
:1012DC00633A1D001B6F11000132D2B2002BF8D102
:1012EC0064330195E154019BE3661C67200005B053
:1012FC00F0BCBB46B246A946A046F0BD02292BD095
:10130C00012936D0032920D151460298091A891A8D
:10131C00404609B288460290190013000A0049465B
:10132C00D1468A46A4E759463B1C9BB200299FD064
:10133C00E4E73A1C92B2331CBE4295D9F3E7A022E3
:10134C001968D2000A431A6077E774220021200042
:10135C0002F0BBFC0020CAE740464946091AC91AEC
:10136C0009B2884651460298091A891A09B20291A3
:10137C007EE740464946091AC91A029809B28046C6
:10138C000291C9E7FFF0FFFFC088704770B50B1CD6
:10139C000400642900D964235A22A354E56CDEB2FC
:1013AC00002D25D0E86A64217043FEF7B7FE236D4B
:1013BC00032B2FD014D8012B23D0022B00D1A863E0
:1013CC00012229680A420AD11000013B9B00984077
:1013DC000300296A0B432B622B6813432B6070BDEF
:1013EC00042BEDD10122286429680A42F7D1EBE7DE
:1013FC00636D002BF3D05822A25A002907D09A61B2
:10140C00EDE70122686329680A42E8D1DCE712049F
:10141C009A61E4E70122E86329680A42DFD1D3E745
:10142C0010B50400FFF7DCFD6369207A98470100D2
:10143C002000FFF7FBFD5A232000E15CFFF7A6FF1D
:10144C0010BDC04670B50C004026436A1D682E4284
:10145C00FCD16521465C002E06D1056C002D03D015
:10146C002139415A0904A9616621415C002902D144
:10147C00816B858F8D611968244D294019605968DD
:10148C00234D294059604821415C5D68022927D0D1
:10149C00E021C900294340255960196852002943AD
:1014AC001960A5180221002A09D022781A739A68AB
:1014BC001142FCD00134A542F7D16522865C802113
:1014CC009A681142FCD1002E05D1026C002A02D080
:1014DC004421415A916140211A688A431A6070BDB7
:1014EC00F0210901294340255960196829431960E5
:1014FC00551E0221002AE2D02288DA609A68114235
:10150C00FCD00234013DF7D2D9E7C046FF5BFFFFA8
:10151C00FFF0FFFFF0B5C64600B50400080011004F
:10152C001A0006AB1B88904202D9050010002A0055
:10153C00994202D90D0019002B00A588854200D8CC
:10154C008FE0E6888E4200D88BE0954201D8013DB1
:10155C00AAB29E4201D8013EB3B2161A5D1A0136E8
:10156C000135A78975436689DB1992198019C91948
:10157C009BB2A66992B289B280B2B047010020003A
:10158C00FFF754FD6523E65C002E06D1226C002A81
:10159C0003D0213BE35A1B0493616623E35C002BCD
:1015AC0002D1A36BA28F9A61079A079BD1B2DB0C75
:1015BC00DB02C90819435309FC22D200134019431A
:1015CC004823E35CA06A98464246636A89B2012AC2
:1015DC0000D17CE06827554AE1531F6817401F6013
:1015EC005F68534A174042465F605F68022A3BD1EE
:1015FC00F02212013A435A605A684E4F3A40402743
:10160C005A601A683A431A60002800D183E0012618
:10161C00E16A47688A005218013989008E4031000E
:10162C009200394341608218022059680C3A0143F8
:10163C0059600C339360230040216833D3601368E6
:10164C008B431360136840318B43136080235B0220
:10165C009D4259D2002355602366012113680B4328
:10166C00136080BCB846F0BDE022D2003A435A6009
:10167C005A68304F3A4040275A601A683A431A6009
:10168C000028C4D10A0A9446CFB2681E002D0DD092
:10169C0002221F7399680A42FCD06146197399683B
:1016AC000A42FCD00138F4D26522A65C80219A68EB
:1016BC001142FCD1002E05D1226C002A02D044210B
:1016CC00615A916140211A688A431A60C9E76827F8
:1016DC004ABAE25391B2154F1A683A401A605A68E6
:1016EC00134F3A405A60E0225F68D2003A435A6086
:1016FC005A68104F3A4040275A601A683A431A60A9
:10170C000028BFD06D0082E70B4B53600B4B9C46FF
:10171C0065442566A1E702206F1E002DC6D0D96056
:10172C009A681042FCD0013FF9D2BFE7FF5BFFFF84
:10173C00FFF0FFFFFFBFFFFFFFFF00000100FFFFF7
:10174C0000B5C2888388013A83B092B2013B019103
:10175C000092002100229BB2FFF7DCFE03B000BD1B
:10176C0070B5040080881D0082B0884229DDE388B2
:10177C00934226DD0B00134323D46089A6694018DD
:10178C00A18980B2891889B20B000200B047010010
:10179C002000FFF74BFCFC21EB0CEAB2DB02D20879
:1017AC001A43C9006B090B4013434822A25C9BB23D
:1017BC00012A08D06A462000911D01220B80FFF7F8
:1017CC0041FE02B070BD5BBA9BB2F3E7F0B5574671
:1017DC004E46DE464546E0B585B017000EAA824659
:1017EC000C000026965F994200D16FE0B74256D0AC
:1017FC00F21BD11752184A40191BCD1749196940D1
:10180C008B4602920299B14638001A00A4465945FB
:10181C0005DD9946200033003C00160067469C42CB
:10182C0008DD4D46814628003D0037002E0025007E
:10183C001C002B001D1BAAB203924A46121AD11788
:10184C0052182DB24A40E90F4D196D10B74243DAC8
:10185C000121884692B25E4691469B4615E02200D5
:10186C00390050460F9BFFF77BFF4B46EB1A9AB2A1
:10187C001DB21B0405D5039B47449C4662443FB2F2
:10188C0015B2013424B25C4519DC029BB342E6DC90
:10189C003A00210050460F9BFFF762FFE5E79942A3
:1018AC0001DD1C000B00002B09DB52469288A24282
:1018BC0005DD002F03DB5246D288B24212DC05B0A4
:1018CC00F0BCBB46B246A946A046F0BDB742EADC26
:1018DC0032003E001700E6E79C42F0DC0121494251
:1018EC008846B7E7F243E1430F98D217C917324045
:1018FC002140BFB201909BB2504692B289B2009780
:10190C00FFF708FEDBE7C046F0B5C6461D00040035
:10191C008846160000B582B008AB0027DF5F099B34
:10192C00009201932B00FFF751FF099B32004146B7
:10193C002000019300974346FFF748FF099B3A00AC
:10194C0041462000019300972B00FFF73FFF099BB6
:10195C003200019329002B0020000097FFF736FF7F
:10196C0002B080BCB846F0BD30B583B006AC0025E3
:10197C00645F994202DD0D0019002B00A24202DDCA
:10198C00150022002C00002B07DB85888D4204DD1E
:10199C00002C02DBC588954201DC03B030BDD54379
:1019AC00ED172A40CD43ED172940079DA4B29BB2F9
:1019BC0092B289B201950094FFF7ACFDEDE7C046F9
:1019CC00F0B5DE4657464E4645469146E0B591B0D9
:1019DC009C461AAB00229B5E1BAA8B460021525ED2
:1019EC001CA908900020095E04928A46994500DDE6
:1019FC00A8E0894500DDC0E09A4500DAB5E0089A18
:101A0C00D088484500DC96E0049A6146944500DA9B
:101A1C00BAE00CB25C4500DA59465246114309044F
:101A2C0000D588E0089A61469488049A944500DDB4
:101A3C00C2E00DB25D4500DDBCE009B28C427ADD3E
:101A4C004A46D143C91711400AB2110052460992B5
:101A5C00504500DCB6E0099A8A426CDD06AA904635
:101A6C005A4605924A4617270692624647449B46B9
:101A7C0088460CAE0792002306AA94463B701A3394
:101A8C00634402934346079A0699009305985B4674
:101A9C0003970196FFF7E8F9431E984185007319E7
:101AAC0099460193434602357519440000935946F3
:101ABC005346049A079803970295FFF7D5F9002827
:101ACC0064D04546023463009A1CB218F318029293
:101ADC0001935146069B059A049803970095FFF7CE
:101AEC00C3F9002863D002340023F15EE4B20B008A
:101AFC00A01E4200B25A151C12B28A4200DD0D1C07
:101B0C00013C6400325B29B2141C12B29A4200DA16
:101B1C001C1C23B2C4B2002CEAD11D9A0898019265
:101B2C0042460092FFF752FE434601331BB29846E1
:101B3C00099B43459FD111B0F0BCBB46B246A946A8
:101B4C00A046F0BD8B4207DD51465A46CA4689462F
:101B5C00049904928B4652E7494699460B00594624
:101B6C00E3468C469A4500DB49E7190053468A4602
:101B7C006146049A0491944641E74946D1468A4607
:101B8C0059469346049137E7111C42E74B460193A3
:101B9C00434651460093059A069B04980397029579
:101BAC00FFF762F900289ED1002CBDD0022400233F
:101BBC00F15E9CE7594640E7111C0DB25D4500DC17
:101BCC003BE7F7E7013802B2099244E7F0B5DE468D
:101BDC004E4645465746E0B587B09CB299460493AD
:101BEC0001231B1B1BB20293E3031B1B5B001BB2E9
:101BFC00059393B29B46109F1500E21812B23B005E
:101C0C0006008846FFF7ACFD5B461A1B41463B00BD
:101C1C00300012B2FFF7A4FD43469BB29846E11880
:101C2C002A003B00300009B2FFF79AFD4346191B0E
:101C3C002A003B00300009B2FFF792FD002301930C
:101C4C004B46002B01DC69E09CB2029A93B2002A4D
:101C5C0009DB621E94B212B20492059A023211B2DE
:101C6C00D31805919BB2019A3000013295B212B291
:101C7C0001926A0001329B181BB2029343465B1916
:101C8C0019B25B461B191BB29A463B005246039194
:101C9C00FFF766FD43465B1B1BB29946524649460D
:101CAC003B003000FFF75CFD5B461B1B1BB29A46EA
:101CBC00300052463B000399FFF752FD524649460D
:101CCC003B003000FFF74CFD43461B191BB29946F5
:101CDC005B465B191BB29A4649463B0052463000A4
:101CEC00FFF73EFD43461C1B24B23B00524621002D
:101CFC003000FFF735FD5B465D1B2DB23B002A0023
:101D0C0049463000FFF72CFD3B002A002100300033
:101D1C00FFF726FD049B019A934295DC07B0F0BCBB
:101D2C00BB46B246A946A046F0BDC046F0B54E46ED
:101D3C00DE4657464546E0B587B09CB21E0004937C
:101D4C0001231B1B1BB20393E3031B1B5B001BB286
:101D5C0005938BB299461500109AE31893464A46A0
:101D6C00111B5A461BB2019209B22A0000958246F9
:101D7C00FFF72CFD002E59DDABB2984600230293E1
:101D8C0000E09CB2039A93B2002A09DB621E94B263
:101D9C0012B20492059A023211B2D31805919BB279
:101DAC00029A5046013295B212B202926A00013286
:101DBC009B181BB203934B465F1B43461A194B46A9
:101DCC005E195B4612B236B23FB2390001930092F3
:101DDC003300FFF7FBFC43461A1B5B4612B2310083
:101DEC005046019300923B00FFF7F0FC4B461E1946
:101DFC004346EA184B461C1B5B4612B236B224B261
:101E0C0031005046019300922300FFF7DFFC43465C
:101E1C005A1B5B4612B201930092230031005046CC
:101E2C00FFF7D4FC049B029A9342AADC07B0F0BCE7
:101E3C00BB46B246A946A046F0BDC046F0B54546E5
:101E4C00DE4657464E46E0B587B0119D03922A00F8
:101E5C00EE0CEDB2F602ED0835435609FC2200916A
:101E6C001099D2008846164035430700AAB248257F
:101E7C0044467E5D13A99346129809786468012E36
:101E8C0002D155BAAAB29346C50CC2B2D208ED0221
:101E9C001543FC224009D20010400543AAB29246D9
:101EAC00012E02D150BA82B292464246107A0026D6
:101EBC00984202D8557A9D4257D243461878431E11
:101ECC00DB1001339946042B48DC01254A46DB0024
:101EDC00013B9D40434656435B785E43A2190292F8
:101EEC007C6A002944D0002200269346002B35D072
:101EFC000197039F4A46012A00D1D5E0022A00D15E
:101F0C00D5E0032A00D1D5E0042A01D1029A166843
:101F1C00029A00244A440292002818D03BB29A46F6
:101F2C0002E00134A04210DD3300A3401D42F8D082
:101F3C00009B019819195246119B09B2FFF710FC2E
:101F4C00434618780134A042EEDC43465B7801220C
:101F5C0094460137E344BFB25B45CBDC07B0F0BC21
:101F6C00BB46B246A946A046F0BD1B1ADEB2A4E79A
:101F7C007A8903999446BE89009A013971185B18C5
:101F8C00511E6144411889B2019100980399604433
:101F9C008A1991B29BB2019ABE6980B2B047010016
:101FAC003800FFF743F8396C002903D04423FB5A5F
:101FBC001B048B61BB6BBA8F9A61402223689343DD
:101FCC0023602368514A134023606368504A1340CE
:101FDC0063604823FB5C6268022B74D0E023DB0057
:101FEC0013436360402223681343236043465B78AA
:101FFC00002B46D048218C46494603915946002275
:10200C00059151460492424601910299B9468A467D
:10201C0010782F0002221900039B012B66D0039B22
:10202C00022B66D0039B032B66D053461D68039B83
:10203C0000269B46DA4400281CD0059B00909B464A
:10204C002B00B34001991F4242D059460098A36817
:10205C001A42FCD000904B4660461B5C022B39D1D7
:10206C00E160009B0136B342EADC5B4605934346D4
:10207C0000985978049B013304939942CCDC4F4669
:10208C00396C0222A3681A42FCD08022A3681A423F
:10209C00FCD14022236893432360002900D15DE7E3
:1020AC004423FB5A8B6159E7029A167830E7029A5F
:1020BC0016882DE7029A56789178360209040E4359
:1020CC0011780E4324E7F0231B011343636089E767
:1020DC000098BCE7CBB2090AC9B22373A3681A42B1
:1020EC00FCD0434621731B780093BAE753461D7806
:1020FC009DE753461D889AE753465E789D783602D5
:10210C002D0435431E78354391E7C046FF5BFFFF36
:10211C00FFF0FFFFF0B557464E464546DE46E0B5AC
:10212C001E0085B00E9B070098460F9B0C0099462D
:10213C00109B15009A4611AB1B789B463378002BED
:10214C0023D042461278B988A2188A4208DD42464A
:10215C005278F9885519ADB2AA1800248A4214DCB9
:10216C005A460392524602924A4601924246210036
:10217C00009238002A00FFF761FE434601361A78B8
:10218C0033781419A4B2002BDDD1FC813D8205B04B
:10219C00F0BCBB46B246A946A046F0BD4823002879
:1021AC0009D002280BD001280BD0033843425841E8
:1021BC00F8234042034041220348835470479C2338
:1021CC00F9E72C23F7E7C0463400002030B50400B3
:1021DC000548250A047149BA140A5BBAC5704471E2
:1021EC0082714181838130BD2000002000487047FE
:1021FC0018000020004870471000002010B502792C
:10220C0003000168002A03D000290BD1002010BD67
:10221C008020284B1A588A431A5004301A588A4383
:10222C001A50F3E74279012A26D0022A19D001204C
:10223C00002A0BD09B79002BE9D0022B21D0032B49
:10224C002FD0012B25D002231843E0E78424194A10
:10225C00105988431051043C105908431051002068
:10226C00E8E78024134A10590843105104341059DC
:10227C00084310510020DDE780240E4A1059884392
:10228C00F3E70C4B1A688A431A605A680A435A607F
:10229C00BDE7084B5A688A435A601A680A431A60A9
:1022AC00B5E7044B1A680A431A605A680A435A6025
:1022BC00ADE7C04600180240F0B54E46DE46574624
:1022CC004546E0B50E680024002E13D15FE0C568CA
:1022DC00A84647460D691F4055433D43C5605B46C4
:1022EC0005682B4065466A43134303603300013491
:1022FC00E3404CD001233500A3401D401E42F5D0D5
:10230C002A006A434B6801279C4653009B18DB4309
:10231C007F4267449B46012FD9D88768B9468F689E
:10232C005743B8464F461F40B94647464B461F4396
:10233C00876043681F00CB68AF43B8461F006F43EC
:10234C00B94647464B461F434760C36899460B69DD
:10235C001F0057435B46B8464F461F40B946474699
:10236C004B461F436346C760022BB8D14B69994655
:10237C00FF2D13D81300534398464746056A1B019B
:10238C00DB1B9D434B467B431D430562A7E70020A7
:10239C00F0BCBB46B246A946A046F0BD2D0A6D4323
:1023AC006D43436A98462B015B1B9A46434657463E
:1023BC00BB4398464B465D4343461D4345628EE7FF
:1023CC000368020070B501205B0629D44E680B68C7
:1023DC0048693343CE68156833430E690C6A33433E
:1023EC008E6903433343CE69000C3343114E2343B0
:1023FC0035402B43136053688D680F4E2843334090
:10240C001843802350601B019D4204D280205368E6
:10241C0040010343536080239B019C4205D0002064
:10242C00D36906490B40D36170BD8B8C00201361BE
:10243C00F6E7C0464000FFFFFBF0FFFFFFF7FFFF92
:10244C0030B5204D03688C680A88A84227D08025B7
:10245C00ED05A8420FD01C4DA8420CD01B4DA84234
:10246C002BD01B4DA8421ED01A4DA8421BD0036086
:10247C00C46282620DE07025AB434D682B43164D50
:10248C002B40CD682B430360124BC462826298428E
:10249C0010D00122436913434361002030BD7025E5
:1024AC00AB434D682B430C4D2B40CD682B43036045
:1024BC00C46282620B690363EBE7074DC9682B406A
:1024CC000B43D4E7002C01400004004000200040E6
:1024DC000044014000480140FFFCFFFF802370B521
:1024EC005B01994200D1DBE02DD8102900D102E12B
:1024FC0080235B00994252D1036A9B4E33400362A6
:10250C00046A9A4B4568C169194013681943984B82
:10251C001C4013691B0223435468334024021C43A0
:10252C00944B984200D173E0934B984200D16FE0EA
:10253C00924B984200D16BE0D3684560C161C36394
:10254C00046200204FE080235B02994200D17CE0C2
:10255C0080235B03994245D1036A894D894C2B40FA
:10256C000362016A436D2340146824021C43864BAA
:10257C00194013691B050B4351682B4009050B438C
:10258C007C49884259D07C49884256D07B49884244
:10259C0053D0D2684465C2650362002023E0012950
:1025AC0020D1036A714E8B430362036A45688469C8
:1025BC003440166834430226B343166933438B43C5
:1025CC0051680B436B4988420ED06B4988420BD043
:1025DC006A49884208D0D2684560846142630362CC
:1025EC00002000E0012070BD08218B435169890057
:1025FC0019430423994393689B000B435A49294080
:10260C00956929435A4D2940D5696D000D43E2E780
:10261C005E4B1C4053699B0223435D4C23409468E2
:10262C00A4021C435B4B1D4093691B012B435A4D69
:10263C002B40D5696D011D437EE745689169574E66
:10264C008902354029434160A3E7036A544D554C38
:10265C002B400362016A436D234014681C43524BA8
:10266C00194013691B040B4351682B4009040B439D
:10267C00404988420CD04049884209D03F498842A1
:10268C0006D0D2684465816D826503620020AAE79A
:10269C0045689169424E0902354029434160F0E793
:1026AC00036A3C4E414C33400362016A4568C3697E
:1026BC002340146824021C43374B194013691B0335
:1026CC000B435168334009030B432A4988420CD011
:1026DC002949884209D02949884206D0D2684560E8
:1026EC00C4610264036200207DE731492940956989
:1026FC00AD010D43F2E7036A2C4C8B430362066A6F
:10270C00456883692340146824021C4320239E439C
:10271C0013691B0133438B43516809011943154B52
:10272C0098420CD0144B984209D0144B984206D0C6
:10273C00D3684560846183630162002053E7802382
:10274C00994353699B010B4340218B439168890149
:10275C0019430F4B1D4093699B002B430B4D2B4092
:10276C00D569ED001D43E3E7FFFEFFFF8CFFFEFF85
:10277C00FFFDFFFF002C01400044014000480140D8
:10278C00FFFFEFFFFF8FFFFEFFFFDFFFFFF7FFFFF6
:10279C00FFFBFFFFFFEFFFFFFFDFFFFFFFFFFBFF75
:1027AC00FFFFFEFF8FFFFEFFFFFFFDFFFF8CFFFE15
:1027BC00FFBFFFFFFA2110B58900FDF7AFFC002227
:1027CC00034B013858609A6005321A6010BDC04640
:1027DC0010E000E00A4A82B013680193019B431C8D
:1027EC00591E8B418021C0184902002805D013685E
:1027FC000B42FCD001380028F9D102B07047C0461A
:10280C0010E000E0014B18607047C046000000204B
:10281C00F0B5CE4647460BB29946002380B517B2A9
:10282C0083B00C00150049463A00009305330600AE
:10283C00FFF7CCF9FF231B0498466A1F05352DB210
:10284C0049463000019312B24B460095FEF7BEFF8D
:10285C004246631D053C019230003A001BB221B286
:10286C000097FEF7B3FF03B0C0BCB946B046F0BD4D
:10287C00F0B5CE464746140080B54D6880460868D2
:10288C0085B0EB179946536B126B0E0002920393B3
:10289C0022686368C117FDF7DBFDA268E36800904E
:1028AC00019128004946FDF7D3FD009A019B1218AF
:1028BC004B41100019002269636980185941029A32
:1028CC00039BFDF7A1FD434618603068A269E369DC
:1028DC00C117FDF7BDFD226A636A06000F002800D0
:1028EC004946FDF7B5FDA26AE36A80197941801863
:1028FC005941029A039BFDF787FD4346586005B08A
:10290C00C0BCB946B046F0BDF0B54E464546DE46B5
:10291C0057460524E0B5384BEBB051930B004AAA4F
:10292C0030911484CA880600511F89B24AA8418488
:10293C009B884AAD581F69855B085108143AAB85D2
:10294C00AB822B836A8328230122F25408339C46E2
:10295C00B4446346479318239C46B4446346E985C4
:10296C0014213193254B80B24C93254BA88446936C
:10297C0056AB9946234BEC842885E9824D93309CC9
:10298C0021492000FEF7DCFE002303931E4B00229E
:10299C000293FF230193469B0021200000934C9B44
:1029AC00FFF7B8FBFA200001FFF714FF20001649CF
:1029BC00FEF7C6FE4B46C846292460A951AD1891B6
:1029CC001A931C912B8830989B466B8859461A0099
:1029DC009A46FFF71DFF335D002B03D1C046335DD4
:1029EC00002BFBD0C046375D002FFBD1336A032B85
:1029FC000CD8C046EFE7C046050005008856000815
:102A0C0004000020FC560008FFFFFF0043465A4616
:102A1C001A60524631985A60189B043506C806C392
:102A2C00194930989A46FEF78BFE1848FFF7D2FEEC
:102A3C0008239C465346E0441893A945C2D11A9BDF
:102A4C0000249B46002300222C932D9400231C99D8
:102A5C0028922993269227932A922B93249225939A
:102A6C00229223931A921B931C921D9318921993E2
:102A7C00209221931E921F935B460A006AAD3297F7
:102A8C002E95349604E0C046FFFFFF0014050000AD
:102A9C001468A04664430494E4170594049E059FAF
:102AAC001E9C1F9DA4197D411E941F9554680832CD
:102ABC00A44664430694E4170794069E079F209C43
:102ACC00219DA4197D4120942195654644466C4373
:102ADC000894E4170994089E099F189C199DA41941
:102AEC007D411894199544460A94E4170B940A9E58
:102AFC000B9F1C9C1D9DA4197D411C941D95644627
:102B0C000C94E4170D940C9E0D9F1A9C1B9DA419FC
:102B1C007D411A941B951C68A246444655466C434D
:102B2C000E94E4170F940E9E0F9F229C239DA419C4
:102B3C007D4122942395554664466C431094E417CA
:102B4C001194109E119F249C259DA4197D412494C1
:102B5C00259554461294E4171394129E139F2A9CA5
:102B6C002B9DA4197D412A942B955C680833A246B1
:102B7C00444655466C431494E4171594149E159FC3
:102B8C00269C279DA4197D4126942795554664467D
:102B9C006C432000E117289C299D24184D41289452
:102BAC00299554461694E4171794169E179F2C9C3F
:102BBC002D9DA4197D412C942D952E9C944200D0D2
:102BCC0066E7209A219B489049911E981F99FDF722
:102BDC003FFC04000D001898199902000B00FDF73A
:102BEC0037FC1C9A1D9B241A8D41189819992E9408
:102BFC002F95FDF72DFC1A9C1B9D349E22002B005B
:102C0C00349035911E981F99FDF722FC1C9A1D9B40
:102C1C003690379120982199FDF71AFC349A359B00
:102C2C00329F3391329029002000FDF711FC2E9C2D
:102C3C002F9D02000B00A800A10F0843399029001A
:102C4C002000A500389592185B41389C399D2418BA
:102C5C004D411A981B99A4185D41369A379BFDF784
:102C6C00F7FB329A339B241A8D411C981D99FDF762
:102C7C00EFFB249A259B241A8D411C981D993466D0
:102C8C007566FDF7E5FB3A903B91229A239B1A9CC3
:102C9C001B9D20002900FDF7DBFB22002B003C9044
:102CAC003D9118981999FDF7D3FB329C339D020086
:102CBC000B0020982199121BAB4132923393229A2C
:102CCC00239BFDF7C5FB249A259B04000D00189847
:102CDC001999FDF7BDFB241A8D41A30FAA001A43C5
:102CEC00A3003F923E933E9A3F9BA4185D413A99B4
:102CFC003B9A4A944B953C9B3D9CC91AA2410800B7
:102D0C0011001A9A1B9BFDF7A3FB329A339B4A9C2A
:102D1C004B9D24184D412A982B99FDF799FB2418AB
:102D2C004D413699379A34637563349B359C5B1AE5
:102D3C0094411E981F9934933594249A259BFDF742
:102D4C0087FB229A239B04000D0018981999FDF714
:102D5C007FFB241A8D41A30FAA001A434192A200B3
:102D6C004092409A419BA4185D41369437953A990C
:102D7C003B9A3C9B3D9C5B1A944118001C9A1D9BF2
:102D8C002100FDF765FB349A359B369C379D241842
:102D9C004D412A982B99FDF75BFB2E9A2F9B2418FB
:102DAC004D412A982B99B463F563FDF751FB329A88
:102DBC00339B04000D0022982399FDF749FB349AAC
:102DCC00359B24184D4124982599FDF741FB289AF1
:102DDC00299B24184D411C981D9934647564FDF78A
:102DEC0037FB269C279D22002B00229023911A98BA
:102DFC001B99FDF72DFB22002B0024902591209888
:102E0C002199FDF725FB289A299B04000D001898A1
:102E1C001999FDF71DFB241A8D41A30FA900194325
:102E2C004391A10042914299439A641855412094D0
:102E3C0021952299239A249B259CC91AA24108000A
:102E4C0011001A9A1B9BFDF703FB329A339B209CB3
:102E5C00219D24184D412C982D99FDF7F9FA289AAB
:102E6C00299B24184D411E981F99B464F564FDF7F5
:102E7C00EFFA269A279B04000D0018981999FDF774
:102E8C00E7FA241A8D41A30FA90019434591A1001B
:102E9C0044914499459A641855412299239A18945F
:102EAC001995249B259C5B1A944118001C9A1D9B18
:102EBC002100FDF7CDFA349A359B189C199D2418E6
:102ECC004D412C982D99FDF7C3FA2E9A2F9B24185F
:102EDC004D412C982D9934657565FDF7B9FA329AE8
:102EEC00339B04000D0026982799FDF7B1FA349A0C
:102EFC00359B24184D4128982999FDF7A9FA0023F0
:102F0C0024184D41B465F5650393434B309C0293F3
:102F1C00FF230193469B00220021200000934D9B30
:102F2C00FFF7F8F8FA200001FFF754FC20003A49AB
:102F3C00FEF706FC2924BA464FAD6B882F881A0081
:102F4C00390030989846FFF763FC335D002B03D1B2
:102F5C00C046335D002BFBD0C046335D002BFBD14C
:102F6C00336A032B01D8C046EFE7479A484631999C
:102F7C00FFF77EFC4B461B687A1F93420BDB053731
:102F8C00BB4208DC4B465A684346053B9A4202DB7F
:102F9C000A339A4201DD01239A461F493098FEF705
:102FAC00CFFB1E48FFF716FC043551AB9D42C4D134
:102FBC005746002F13D000220392174A30980292E2
:102FCC00FF2212040192469A00210092144B002217
:102FDC00FFF7A0F8FA20C000FFF7FCFBCFE40E4A85
:102FEC00309C0292FF220192469A0E4B0021200047
:102FFC00009203970022FFF78DF8FA20C000FFF72C
:10300C00E9FB20000449FEF79BFB6BB0F0BCBB4610
:10301C00B246A946A046F0BDFFFFFF001405000014
:10302C008457000874570008F0B5DE464E464546F6
:10303C00574628230122E0B50D00C254AFB0914B86
:10304C000DAA040043CB43C243CB43C203CB03C200
:10305C002800FEF799F9C00883B29B4628008A49DC
:10306C00FEF76EFB5B46023B1BB205935B46043BD3
:10307C001BB2069308239A46002399462B0055460B
:10308C009846A2464C465B46A7B2DE190023B6B260
:10309C000193B31E1BB222B2002140460093059B44
:1030AC00FEF732FC4B461C2006A909189B00CB5896
:1030BC00043E023736B201930221069B40463AB2D7
:1030CC000096FEF751FC01239C46013D5C44E14413
:1030DC00002DD8D15B46DB001A005946521A01214B
:1030EC005446AA46039168494546029151460191BE
:1030FC00664902322800099392B2654B0791009100
:10310C000221FFF707F80822624915A800F061FEBA
:10311C005C22002117A800F0D8FD01235B429846E1
:10312C00994631339C46A4446346069318239C4627
:10313C00A44463460593584B08932B004546984688
:10314C001DE04346DB889F4244DB5F1EB34552DDE6
:10315C007B1C41D1380033B24A46013233D06A1C51
:10316C0031D049462AB25546009009B240460195E5
:10317C00FEF72CFB3D00B1460120FFF72BFB200096
:10318C0000F072FB2923E65C002E37D0069A0599D5
:10319C000BA8FFF76DFB0B9E0C9FF343DB171E4038
:1031AC00FB43DB171F4043469B88B342C9DC5E1EC2
:1031BC004346DB889F4260DA731C0BD14A463300CE
:1031CC0038B20132CBD1534640463AB231B2FEF757
:1031DC00C7FACFE7B3450EDD099B9F420BDA594680
:1031EC003800FDF725F81C2106AA83005218D35885
:1031FC009A46072827D033B238B2ADE7236A206F3E
:10320C004321584306AB9C460A22614400F036FC2D
:10321C0015A8FCF771FF15AB9C4607220899604472
:10322C0000F0D7FDFF23012502931C4B00220193D4
:10323C00079B594600934046039615AB6D42FEF72B
:10324C0069FFA94698E7002245460392FF32029295
:10325C00124A32210192079A2800114B00929622B1
:10326C00FEF758FFFA208000FFF7B4FA2FB0F0BC3D
:10327C00BB46B246A946A046F0BD5F1E731C9DD04E
:10328C0064E7C046BC4A0008FFFFFF0004000020B2
:10329C0098570008C0570008B857000800FFFF00F7
:1032AC00A0570008F0B5DE4657464E464546E0B5F9
:1032BC00A74C8B88A5440593CB8815AA0693A54BE0
:1032CC0080468A4613CB13C219682D2011601B79D6
:1032DC00002113710EAB9C461722604400F0F5FCE4
:1032EC0009229D491FA800F074FD0EAB9C464D2091
:1032FC005B220021604400F0E8FC984B41469B4661
:10330C001B6800220D932823CA54273B0E930023DD
:10331C009946303343441193182343441093904BF4
:10332C0046270F938F4B0C935B46D346C246C84639
:10333C0099463EE000230393FF3302938A4B00220D
:10334C0001930C9B00215846009315ABFEF7E2FE4F
:10335C00504600F001FB854B0400984227D00E9A92
:10336C00952A00DDDCE0A8200EA993000918CC50AA
:10337C00531C0E930A2221A9200000F07FFB1FA8EA
:10338C00FCF7BAFE1FAB9C4604220F99604400F078
:10339C0020FD00230393FF330293734B0D22019303
:1033AC000C9B0021009358461FABFEF7B3FE4B4617
:1033BC001D6000F0F1FA050000F0EEFA2D04059BFB
:1033CC0004002D0C5D4300F0E7FA2404069A240C4B
:1033DC005443060000F0E0FA0B9000F0DDFA0A907E
:1033EC0000F0DAFA099000F0D7FA089000F0D4FA5D
:1033FC00079000F0D1FA3104079E03903004000CC2
:10340C007843240C0014089E0A9B201A00B20290E8
:10341C001B0430041B0C090C000C7B4379437843D0
:10342C002D0C00141B1409140B9AEB18691A2D1A85
:10343C00099812040004120C000C7A4378431214FD
:10344C000014A21A24182DB224B21BB212B209B263
:10345C00584601950094FEF7B3FA00F09DFA05006A
:10346C0000F09AFA060000F097FA040000F094FAC3
:10347C00240406993204230C120C240B4A43E31A3D
:10348C002904059C090C61431214DB1309140090E8
:10349C005846FEF74BFC02239C465046E04400F095
:1034AC00E3F9534675229B5C012B20D0022B30D0C4
:1034BC004B461D680D9BEA1AFA239B009A4200D2D8
:1034CC0038E70A2219A9404600F0D8FA15A8FCF7EB
:1034DC0013FE15AB9C4604220F99604400F079FC56
:1034EC004B461B681D000D930023984622E7119A4A
:1034FC00109913A8FFF7BCF90EAB18229A5E0EAB0D
:10350C001421595E1A4B584600931423FEF70EFCF7
:10351C00CEE700F041FA01005846FEF711F9C7E773
:10352C009526B600320039A938A800F0BBFBA822BA
:10353C0000200EAB9B189C51CEA938AB04CB801845
:10354C009942FBD19621FCF773FE040012E7C046AA
:10355C00C4FCFFFFDC4A0008CC570008C001002067
:10356C00C85700080400002000FFFF006079FEFF30
:10357C00FFFFFF00F0B557464E464546DE468846EF
:10358C004021E0B503680700080016001A688BB0EC
:10359C0010400590114200D0FFE01A688048069256
:1035AC005A6807921A68024004201A601A6802438B
:1035BC001A60382238791C68C000024022431A6015
:1035CC005A687848162402405A60E0225868D200A3
:1035DC0002435A601A680A431A60BA89B96812041D
:1035EC008A613C5772009146002C0BDB1F21214055
:1035FC0001246D4825000268CA4015400595144207
:10360C0000D0C2E0414608AA1170002208A9674DFB
:10361C008C46049580254A700392019201329346A0
:10362C000132624408000292002402210122AC46BD
:10363C00C24600969D682942FCD05546009E1D73DB
:10364C009D682A42FCD0029D01300096A84215D0FC
:10365C00002C10D04D461E7B013DA846B24622429E
:10366C000ED036020196A54240D00134A1451DDD95
:10367C000578AA46DEE71C7B0124F9E708A8E7E7F2
:10368C005546019E2E430196A0452FD05D46002D38
:10369C0029D1012CE9D0039E019DB0466D042D0D5E
:1036AC00A844454601340395A145E1DC009E012E5A
:1036BC0004D00398711EFCF7BBFD0390059B002BF7
:1036CC0009D01623FB56002B05DB1F221A400123C1
:1036DC009340354A136003980BB0F0BCBB46B2461E
:1036EC00A946A046F0BD0025AB46BEE7009E9D68EE
:1036FC002942FCD000251D739D682A42FCD0B0469F
:10370C001D7B019E2E430196049E358808AEB58024
:10371C00049EB57808AEB57109ADAA4646469D68BB
:10372C002942FCD055462D781D739D682A42FCD049
:10373C001D7B0125A84608ADC24407355545EED181
:10374C00009666463D68AA46AD682E420ED080466D
:10375C0050469A460300009EC04660469D6828422B
:10376C00FAD11D0040465346AA460096BD68BE8954
:10377C00AE61554640262D68B543564635605546D4
:10378C00069E2E60079E6E6080E78C4080228450DF
:10379C00BFF34F8FBFF36F8F34E7054B03939AE75B
:1037AC00445BFFFFFFF0FFFF00E100E0044B00086B
:1037BC006079FEFF70B5036904001A69838A1A42A6
:1037CC0001D0012070BD1122D321FFF7D3FE1122AD
:1037DC00050093212000FFF7CDFE124B9D4215D022
:1037EC00984213D023691A69A38A1A42E9D1292372
:1037FC000121E1544C33E25C002A05D0012A07D0A8
:10380C00E061A5610020DDE7E154F9E70220D9E78A
:10381C00616A226F4A4304498A42F1D90222E25476
:10382C00EEE7C0466079FEFFDB05000070B51500C1
:10383C0004000E007822002100F047FA2A00230031
:10384C00266723CA23C323CA23C3054B054D1C601B
:10385C00012280212000FFF78DFEA842F8D070BD18
:10386C00CC0100206079FEFF282370B5C55C0400F4
:10387C000020002D00D070BD2000FFF79BFF012819
:10388C00F9D12923E554636A23627423E052236F30
:10389C00E366F0E700281ED003691A69838A1100D9
:1038AC0019401A4217D1682201238354026F4162D6
:1038BC00C26616228256002A0DDB1F210A40934055
:1038CC006231064AFF3153500139FF395350BFF36F
:1038DC004F8FBFF36F8FBFF34F8F704700E100E046
:1038EC0070B5041E15D06822835C002B11D0C36EFA
:1038FC00013BC366002B0ED17425016FC166465D7A
:10390C00002E09D12823C35C002B15D1636A013327
:10391C006362BFF34F8F70BD435583541623C35658
:10392C00002BF6DB493A1A400123C0219340094A87
:10393C00490053501360ECE7FFF73CFF0128E5D139
:10394C002923E654636A23626055236FE366BFF351
:10395C004F8FE0E700E100E070B5112287210500F0
:10396C00FFF708FE11220400F7212800FFF702FEE2
:10397C00074B9C4207D0984207D0001B054C444390
:10398C002413123CFF3C200070BD0400FBE7C04632
:10399C006079FEFFA1190000164B10B51C68236B53
:1039AC00002B16D1182000F085FA021E206304D1DA
:1039BC005221114B114800F015FA114B00210360F4
:1039CC00104B4360104B83600B23838101201061EB
:1039DC005161246B0D4A206961690D4BFCF738FD70
:1039EC000122002380185941206161614800400880
:1039FC0010BDC046D4000020D5570008EC57000875
:103A0C000E33CDAB34126DE6ECDE05002D7F954CFC
:103A1C002DF45158F0B50C0016008DB0252207007E
:103A2C00154902A800F0D5F9621EB31E00250192BB
:103A3C00222B04D925702C0020000DB0F0BD3800CD
:103A4C003100FCF7F1FB0B0002AAD35C019A2900B0
:103A5C00013553553B0007009E42F0D9002322004C
:103A6C0063550B00C81A8342E6DD1078E55C1570CF
:103A7C00E0540132013BF5E74458000810B5FFF75C
:103A8C00C9FF10BD002310B50400036043608360C0
:103A9C0081814366C28103614361836119000822FD
:103AAC005C3000F012F90B4B246263620A4BA36288
:103ABC000A4BE3620A4B23630A4B9C4205D00A4B28
:103ACC009C4202D0094B9C4203D12000583000F09C
:103ADC007DF910BD193C0008413C0008793C0008F8
:103AEC00A53C0008D001002038020020A0020020D4
:103AFC0010B5034A0349044800F06CF810BDC046E9
:103B0C00C800002045410008D800002041680B4B3C
:103B1C0010B50400994201D000F00EFBA168084BCF
:103B2C00994202D0200000F007FBE168054B994256
:103B3C0002D0200000F000FB10BDC046D0010020D8
:103B4C0038020020A002002010B5094B094A0421BC
:103B5C001A6009480022FFF795FF01220921074846
:103B6C00FFF790FF022212210548FFF78BFF10BDD3
:103B7C0008030020FD3A0008D00100203802002084
:103B8C00A002002010B5024800F021F910BDC0467B
:103B9C001103002010B5024800F01AF910BDC04600
:103BAC001103002010B50400FFF7ECFF236A002B73
:103BBC0002D0FFF7EFFF10BD044B2362044B1B68D0
:103BCC00002BF6D1FFF7C0FFF3E7C046193B000806
:103BDC0008030020F7B51400002600900191A56899
:103BEC006768013F04D52468002CF8D13000FEBD75
:103BFC00AB89012B08D90E22AB5E013304D029000E
:103C0C000098019B984706436835EAE770B50C00AD
:103C1C000E25495F00F088F8002803DB636D1B1844
:103C2C00636570BDA389024A1340A381F9E7C046BE
:103C3C00FFEFFFFFF8B51F008B8905000C00160085
:103C4C00DB0505D50E23C95E0022022300F058F8CF
:103C5C00A389054A28001340A38132000E23E15E9C
:103C6C003B0000F075F8F8BDFFEFFFFF70B50C00DE
:103C7C000E25495F00F044F8A389421C03D1054A84
:103C8C001340A38170BD802252011343A381606550
:103C9C00F8E7C046FFEFFFFF10B50E23C95E00F03A
:103CAC001DF810BD10B5884206D800239A4208D0E2
:103CBC00CC5CC4540133F9E78B189842F5D2013A25
:103CCC0000D210BD8B5C8354F9E703008218934239
:103CDC0000D1704719700133F9E70000002370B56B
:103CEC00064D040008002B60FDF762F8431C03D15D
:103CFC002B68002B00D0236070BDC0460C03002045
:103D0C0070B50400080011001A000023054D2B604B
:103D1C00FDF75AF8431C03D12B68002B00D023600D
:103D2C0070BDC0460C03002070B5040008001100E3
:103D3C001A000023054D2B60FDF71EF8431C03D120
:103D4C002B68002B00D0236070BDC0460C030020F4
:103D5C0070B50400080011001A000023054D2B60FB
:103D6C00FDF718F8431C03D12B68002B00D02360FF
:103D7C0070BDC0460C030020014B18687047C0464C
:103D8C00D400002070B500260C4C0D4D641BA41003
:103D9C00A64209D1002600F06BFE0A4C0A4D641BAA
:103DAC00A410A64205D170BDB300EB58984701365C
:103DBC00EEE7B300EB5898470136F2E7E0580008FD
:103DCC00E0580008E4580008E058000870477047B5
:103DDC007047002310B59A4200D110BDCC5CC4547E
:103DEC000133F8E77FB514001A00094B05001B6876
:103DFC000E00D868074B002C01D1074B1C0007495B
:103E0C00019302942B00009600F0C2F900F0E2F945
:103E1C00D400002069580008A458000876580008FF
:103E2C0070B505000C1E10D0043C2368002B00DA82
:103E3C00E418280000F0EAF81D4A1368002B05D19D
:103E4C0063601460280000F0E9F870BDA34208D943
:103E5C00206821188B42F3D119685B68091821601E
:103E6C00EEE71A005B68002B01D0A342F9D9116868
:103E7C005018A0420BD120680918501811608342C9
:103E8C00E0D118685B68411811605360DAE7A04212
:103E9C0002D90C232B60D5E7206821188B4203D163
:103EAC0019685B680918216063605460CAE7C046F2
:103EBC001803002010B5034B0100186800F026F819
:103ECC0010BDC046D400002070B50F4E0D003168F7
:103EDC000400002902D100F06BF9306029002000A9
:103EEC0000F066F9431C03D101256D42280070BD1A
:103EFC000323C51C9D43A842F8D0291A200000F0CA
:103F0C0057F90130F2D1EFE714030020F7B5032283
:103F1C00CB1C9343083305001F000C2B34D20C2709
:103F2C00B94233D8280000F071F8374E33681C00C2
:103F3C00002C2FD139002800FFF7C6FF0400431CCA
:103F4C005FD134680094009B002B4AD1002C52D0D6
:103F5C0023682800E3180099019300F029F9019BCC
:103F6C00834248D123682800FF1A3900FFF7ACFFC1
:103F7C00013040D02368DB19236033685A68002A6B
:103F8C0033D1009B336019E0002BC9DA0C232B6072
:103F9C000020FEBD2168C91B20D40B290AD9E219C7
:103FAC002760A34204D1326063681160536005E05E
:103FBC005A60F9E76268A3420ED13260280000F023
:103FCC002DF8200007220B30231D9043C21A984273
:103FDC00DFD01B1AA350DCE75A60EFE723006468BC
:103FEC00A6E7009C63680093ADE71A005B68A342E8
:103FFC00FBD10023DAE70C2328002B6000F00EF82D
:10400C00C6E70760DAE7C0461803002010B502487F
:10401C00FFF7DDFE10BDC0461003002010B50248AE
:10402C00FFF7D6FE10BDC04610030020F7B50C22DA
:10403C008B5E05000C001A0756D44A68002A02DC75
:10404C000A6C002A4EDDE76A002F4BD0002280203C
:10405C002E682A601A004001216A0240034233D0C4
:10406C00626DA3895B0706D56368D21A636B002B5C
:10407C0001D0236CD21A00232800E76A216AB847C2
:10408C00A289431C06D129681D2946D8294B0B410E
:10409C00DB0742D40023636023692360D20405D577
:1040AC00431C02D12B68002B00D16065616B2E6024
:1040BC00002917D023004433994202D02800FFF77F
:1040CC00AFFE002363630DE001232800B847020014
:1040DC00431CC6D12B68002BC3D01D2B01D0162B33
:1040EC001AD12E6000201EE00E69002EFAD00F6847
:1040FC000E60BA1B019200229B0700D14A69A26094
:10410C00019B002BEEDDA36A32001F002800019BEF
:10411C00216AB847002807DCA289402301201343F9
:10412C001BB2A3814042FEBD019B36181B1A0193A2
:10413C00E6E7C046FEFFBFDF0B6970B505000C005B
:10414C00002B02D10025280070BD002804D0036A82
:10415C00002B01D1FFF726FD0C22A35E002BF1D022
:10416C00626ED20704D49B0502D4A06DFFF72FFE1C
:10417C0028002100FFF75AFF636E0500DB07E2D42D
:10418C00A3899B05DFD4A06DFFF722FEDBE70000BF
:10419C000EB417B5054C05AB04CB01002068019398
:1041AC0000F046F81EBC08BC03B01847D400002031
:1041BC00002370B5064D040008002B60FCF706FECA
:1041CC00431C03D12B68002B00D0236070BDC0466C
:1041DC000C030020062010B500F08EFB0120FCF72C
:1041EC00C5FD936810B5013B9360002B04DA94690C
:1041FC00A34207DB0A2905D01368581C10601970FC
:10420C00080010BD00F0AEFA0100F9E7F8B50600A1
:10421C000F001400D518AC4201D1002007E0217822
:10422C003A003000FFF7DDFF0134431CF3D1F8BD39
:10423C00F0B5A1B00F0015001E000390002804D0AB
:10424C00036A002B01D1FFF7ADFC7B6EDB0705D4B5
:10425C00BB899B0502D4B86DFFF7B9FDBB891B0761
:10426C0002D53B69002B13D13900039800F0BCFA3E
:10427C0000280DD07B6EDB0703D50120404221B016
:10428C00F0BDBB899B05F8D4B86DFFF7A1FDF4E731
:10429C00002308AC6361203363761033A376079652
:1042AC002E003378002B01D0252B48D1731B05939E
:1042BC00AE420BD02A0039000398FFF7A7FF01305C
:1042CC0000D1AEE06369059A9B1863613378002BCB
:1042DC0000D1A6E0012200235242626004A95432AC
:1042EC005218751C2360E360A3601370A365594BCF
:1042FC00052218002978059300F01EFB6E1C00287F
:10430C001FD12268D30604D5532304A95B1820219E
:10431C001970130704D5532304A95B182B211970AA
:10432C002B782A2B16D02E0000210A20E368327835
:10433C00751C303A092A50D9002911D117E00136E1
:10434C00AFE7059B2268C01A012383401343350055
:10435C002360CCE7079B191D1B680791002B01DB21
:10436C000B9304E05B42E360022313432360337836
:10437C002E2B0CD173782A2B34D1079B02361A1DA5
:10438C001B680792002B01DA01235B420993324D23
:10439C0003222800317800F0CFFA002806D0402301
:1043AC00401B834022680136134323603178062278
:1043BC002A48751C217600F0BFFA002840D0284B03
:1043CC00002B22D10722079B073393430833079313
:1043DC006369049A9B18636162E743432E000121D1
:1043EC009B18A4E700230A20190001366360327879
:1043FC00751C303A092A03D9002BC8D00991C6E79D
:10440C0041432E0001238918F1E707AA00922100ED
:10441C003A00144B039800E000BF0490049B013356
:10442C00D6D17B6EDB0705D4BB899B0502D4B86D56
:10443C00FFF7CEFCBB895B0600D51EE70D981EE787
:10444C0007AA009221003A00064B039800F07CF872
:10445C00E3E7C046A5580008AB580008AF58000861
:10446C000000000019420008F7B5160001938A6895
:10447C000B690C000090934200DA130022003360A9
:10448C0043321278002A01D00133336023689B0633
:10449C0002D53368023333602268062315001D40B1
:1044AC001A4227D0230043331B785A1E93412268AB
:1044BC00920630D4220001990098089D4332A847F7
:1044CC00013025D00622236800251340042B05D18A
:1044DC003368E568ED1AEB43DB171D40A3682269CE
:1044EC00934201DD9B1AED180026B54220D1002025
:1044FC0010E00135E36832689B1AAB42D2DD220032
:10450C00012301990098089F1932B8470130F0D166
:10451C0001204042FEBD3020E118433108702100DB
:10452C005A1C45310978A218433202331170C1E785
:10453C002200012301990098089F1A32B8470130D4
:10454C00E6D00136D1E70000F0B58BB006920A0038
:10455C0043320793059003920A7E0C00109B782A35
:10456C0009D8622A0BD8002A00D1BCE07B490491FF
:10457C00582A00D190E0250042352A7022E0100024
:10458C0063381528F7D8FBF7BFFD16001F00F6FFA0
:10459C00F6FFF6FFF6FF1F00F6FFF6FFF6FFF6FF3D
:1045AC00A10036008000F6FFF6FFB200F6FF3600E1
:1045BC00F6FFF6FF840025001A684235111D1960BC
:1045CC0013682B700123A0E018680968021D0D0602
:1045DC000BD506681A60002E03DA2D23039A764257
:1045EC0013705E4B0A27049318E006681A6049069C
:1045FC00F1D536B2EFE70868196840C9050602D450
:10460C00400600D5B6B21960544B0A2704936F2AA2
:10461C0000D1023F2300002243331A706368A36069
:10462C00002B03DB042122688A432260002E02D176
:10463C00039D002B0CD0039D30003900FBF7F4FDDB
:10464C00049B013D5B5C2B70330006009F42F3D949
:10465C00082F09D12368DB0706D5626823699A42C3
:10466C0002DC3023013D2B70039B5B1B2361079BFA
:10467C00210000930598069B09AAFFF7F5FE01306F
:10468C0048D1012040420BB0F0BD202209680A43FA
:10469C002260782232490491210045310A70196850
:1046AC00226840C9100602D4500600D5B6B2196073
:1046BC00D30702D5202313432360002E01D01027EB
:1046CC00A8E72022236893432360F8E71A680D6853
:1046DC00101D4969186013682E0601D5196002E097
:1046EC006D06FBD519800023039D2361BFE71A6873
:1046FC00111D1960156800212800626800F01CF972
:10470C00002801D0401B6060636823610023039A7A
:10471C001370ACE72A00236906990598079DA847F2
:10472C000130AED023689B0715D4099BE0689842F2
:10473C00A9DA1800A7E72200012306990598079E1D
:10474C001932B04701309CD00135E368099A9B1AA5
:10475C00AB42F0DCE9E70025F7E7C046B6580008A5
:10476C00C7580008F8B506000D001400002804D046
:10477C00036A002B01D1FFF715FAA369A360A38983
:10478C001B0702D52369002B09D12100300000F052
:10479C002BF8002803D001256D422800F8BD2369B1
:1047AC002068EFB2C01A6369EDB2834205DC2100C8
:1047BC003000FFF7C1FC0028EDD1A3680130013BAC
:1047CC00A36023685A1C22601F706369834204D063
:1047DC00A389DB07E1D50A2DDFD121003000FFF7DB
:1047EC00ABFC0028D9D0D6E72D4B70B50500186866
:1047FC000C00002804D0036A002B01D1FFF7D2F97A
:10480C000C23E25E130723D4D30607D409232B60B1
:10481C00402301201343A38140423AE0520713D5B1
:10482C00616B002908D023004433994202D0280040
:10483C00FFF7F6FA002363632422A3899343A38131
:10484C0000236360236923600823A2891343A38197
:10485C002369002B0BD1A0218022A389890092000F
:10486C000B40934203D02100280000F09BF80C234E
:10487C00E25E012113000B400A420BD00023A3601F
:10488C0063695B42A36100202369834201D1130653
:10489C00BED470BD910700D46369A360F3E7C04632
:1048AC00D400002070B504000D001F2904D9162374
:1048BC0003600120404270BDC36B002B04D08A0002
:1048CC009B181A68002A08D1200000F031F82A0041
:1048DC000100200000F01AF8EDE7012A09D0511C64
:1048EC0003D1162303600120E5E70021280019609D
:1048FC0090470020DFE7000010B5034B010018685B
:10490C00FFF7D0FF10BDC046D4000020002370B5C7
:10491C00064D0400080011002B60FCF71FFA431C25
:10492C0003D12B68002B00D0236070BD0C0300203A
:10493C0010B5FCF711FA10BDC9B28218904201D122
:10494C000020704703788B42FBD00130F6E7000063
:10495C0070B50E001D000E23C95E140096B0002920
:10496C000CDAB2898023110019401A4214D1802329
:10497C00DB0000202960236016B070BD6A4600F091
:10498C0053F80028EDDBF02301991B021940044B6E
:10499C00C9184B425941EAE700214023E9E7C046D8
:1049AC0000E0FFFFF0B502268B8905000C0085B0F6
:1049BC00334207D023004733236023610123636113
:1049CC0005B0F0BD03AB02AAFFF7C2FF029F019036
:1049DC0039002800FFF79AFA002808D10C22A35EB0
:1049EC009A05EDD4032293431E43A681E2E780236C
:1049FC00A28920601343A381039B20616761002B74
:104A0C000CD028000E23E15E00F020F8002805D021
:104A1C000323A2899A43023B1343A381A389019ADE
:104A2C001343A381CCE70000002370B5064D0400AE
:104A3C00080011002B60FCF7BFF9431C03D12B6855
:104A4C00002B00D0236070BD0C030020002370B538
:104A5C00064D040008002B60FCF7B4F9431C03D18D
:104A6C002B68002B00D0236070BDC0460C030020C7
:104A7C00F8B5C046F8BC08BC9E467047F8B5C046B1
:084A8C00F8BC08BC9E4670470F
:104A9400000400400100000000000000000050007D
:104AA40000300140040000000000005080000000BD
:104AB4000004005080000700000000000000FF0018
:104AC40000FF0000FF00000000FFFF00FFFF0000E8
:104AD400FF00FF00FFFFFF00205072696D697469D9
:104AE4007665732F63203D20000000000000000065
:104AF40000000000000000000000000000000000B2
:104B04008000000048656C6C6F2C2020776F726CFD
:104B140064210000546F75636820696E6974204FC6
:104B24004B21000000000000000000000000000015
:104B34000000000808080808080800080000000031
:104B4400141414000000000000000000000A0A3FD2
:104B54001414147E282800000000081C22201C02C3
:104B6400221C0800000000205122040810224502E3
:104B7400000000001820201030494A443B00000087
:104B840000080808000000000000000000000408FD
:104B9400081010101010080804000010080804047D
:104BA40004040408081000000000361C7F1C3600B2
:104BB400000000000000000808087F080808000042
:104BC40000000000000000000000081000000000C9
:104BD400000000007F000000000000000000000052
:104BE400000000000800000000000102040810207A
:104BF4004000000000001C222222222222221C004B
:104C040000000008380808080808083E00000000F2
:104C14001C220202040810203E000000001C220294
:104C2400020C0202221C00000000040C0C141424C8
:104C34003E040E000000003E2020203C0202221C04
:104C4400000000000C1020203C2222221C00000046
:104C5400003E2202040408081010000000001C2278
:104C640022221C2222221C000000001C2222221EBE
:104C74000202041800000000000000080000000008
:104C840008000000000000000800000000081000F8
:104C940000000000040810201008040000000000B8
:104CA40000003E003E00000000000000000010086C
:104CB4000402040810000000001C22020204080878
:104CC4000008000000001E214D5555554E201C00C3
:104CD4000000001808081414223E22770000000087
:104CE4007E2121213E2121217E000000001E214041
:104CF40040404040211E000000007C22212121214F
:104D040021227C000000007F2120243C2420217FDC
:104D1400000000007F2120243C2420207800000093
:104D2400001E214040404741211E00000000772220
:104D340022223E22222277000000003E08080808B2
:104D44000808083E000000001E040404040444444F
:104D54003800000000732224242838242273000021
:104D640000007C101010101010117F000000006370
:104D74002236362A2A2222770000000067223232A5
:104D84002A26262272000000001C22414141414192
:104D9400221C000000007E2121213E2020207800DA
:104DA4000000001C224141414141221C1B00000023
:104DB4007E2121213E24242273000000003E414034
:104DC400403E0101413E000000007F4908080808F8
:104DD40008081C0000000077222222222222221C22
:104DE4000000000077222222141414080800000096
:104DF40000772222222A2A2A141400000000772293
:104E040014140814142277000000007722221414CA
:104E14000808081C000000007F4204040810102148
:104E24007F000000001C1010101010101010101C37
:104E340000000040201008040201000000000000EF
:104E44001C04040404040404041C000814220000C8
:104E5400000000000000000000000000000000004E
:104E6400000000FF00001008000000000000000027
:104E74000000000000003C023E42423D00000000F1
:104E84006020203E212121217E000000000000003E
:104E94003E414040413E000000000602023E4242C4
:104EA40042423F000000000000003E417F40413E7E
:104EB400000000000C10103C101010103C0000000A
:104EC400000000003F4242423E02023C00006020DB
:104ED400202C32222222770000000008000038082B
:104EE4000808083E000000000400003C0404040418
:104EF400040438000060202026242838246300009D
:104F0400000018080808080808083E00000000000F
:104F14000000742A2A2A2A6B000000000000006C9A
:104F24003222222277000000000000003E4141416D
:104F3400413E000000000000007E212121213E208E
:104F44007000000000003F424242423E020700005F
:104F540000000076191010107C0000000000000012
:104F64003E413806413E000000000010103C101085
:104F740010120C0000000000000066222222261BF2
:104F84000000000000000077222214140800000032
:104F94000000000077222A2A1414000000000000F8
:104FA4000077221C1C2277000000000000007722FA
:104FB40022141408083000000000007E4408102267
:104FC4007E000000000608080808300808080806E3
:104FD400000808080808080808080808080000303D
:104FE4000808080806080808083000000031494687
:104FF400000000000000000000001C1C1C1C1C1C05
:105004001C1C1C000000FE9210101E11111516002D
:105014000004083F11101010101010380000000098
:105024000000000000000000081000000408003E1A
:1050340012101010103800000000000000000000E2
:10504400000024480000000000000000000000549C
:105054000000000010107C10101010101000000050
:105064000010107C1010107C101000000000001CB8
:105074001C1C1C1C1C1C1C1C00000021522408109D
:105084002052AD1200000000F84848484E4949C972
:10509400CE00000000000000000408100804000016
:1050A4000000EC4848487E494949EE000004087372
:1050B400222424382424227300000000FE921010BD
:1050C4001E1111113900000000772222222222220F
:1050D400227F08080000207C202C32222222720227
:1050E400060000100800000000000000000000009E
:1050F4000810000000000000000000000048240028
:105104000000000000000000000012240000000065
:1051140000000000000000000000183C180000001F
:10512400000000000000000070000000000000000B
:105134000000000000FC000000000000000000006F
:105144000000000000000000000000FB55510000BA
:10515400000000000000000000000018282E49494B
:10516400CE00000000000000002010081020000005
:105174000000000000CC487E4949EE000000000415
:10518400080066243824246300000000207C202CBE
:105194003222222277000000000000006622222230
:1051A400223E08080000000000000000000000008B
:1051B4000036087F222222221E02221C0000000048
:1051C4000036087F2222221E02221C00001E040434
:1051D40004040444443800000000413E2222223EDC
:1051E400410000000001033F10101010101010388F
:1051F400000000000808080808000808080808005B
:10520400001E22504824120A4478000022007F2104
:1052140020243C2420217F000000001C224D5151F9
:105224004D221C00000000001E2140447C4440210B
:105234001E000000000000000011224422110000A2
:1052440000000000003E020000000000000000001A
:10525400000000007F000000000000001C225955DF
:105264005955221C00000022003E080808080808BE
:10527400083E0000000008140800000000000000C0
:105284000000000808087F080808007F00000000EC
:105294003E080808080808083E000000000800004E
:1052A40038080808083E0000000000021E10101014
:1052B4001010380000000000000022222222223CAC
:1052C400204000003F7A7A7A3A0A0A0A1B0000005A
:1052D40000000000000008000000000000002200A0
:1052E400003E417F40413E00000000C644677754C1
:1052F4004F4C44C6000000000000003E417840418D
:105304003E0000000000000000442211224400007E
:1053140000000400003C0404040404043800003EBB
:105324004140403E0101413E000000000000003EBB
:10533400413806413E0000000024000038080808F7
:10534400083E0000000002060A0A121E222277000C
:105354000000007F2120203E2121217E000000004A
:105364007E2121213E2121217E000000003F1110D9
:10537400101010101038000000007F222222222278
:1053840022227F414100007F2120243C2420217FD0
:1053940000000000492A2A2A1C2A2A2A490000005F
:1053A400003E4101011E0101413E00000000632254
:1053B40026262A323222770000000C6B3226262A57
:1053C400323222770000000073222424382424225D
:1053D40073000000003F12121212121252770000E2
:1053E4000000632236362A2A222277000000007742
:1053F4002222223E22222277000000001C22414168
:10540400414141221C000000007F2222222222224C
:105414002277000000007E2121213E2020207800F8
:105424000000001E214040404040211E00000000BA
:105434007F490808080808081C0000000077222299
:1054440022221E02221C000000001C083E49494979
:105454003E081C000000007722141408141422775C
:105464000000000077222222222222223F01010092
:105474000077222222221E020207000000006B2A6B
:105484002A2A2A2A2A2A3E000000006B2A2A2A2ACB
:105494002A2A2A3F010100007850501E11111111CF
:1054A4003E00000000E74242724A4A4A4AF70000BE
:1054B40000007020203E212121217E000000003CBC
:1054C4004201111F1101423C0000000066292929F4
:1054D4003929292966000000003F4242423E121247
:1054E400226F000000000000003C023E42423D00EA
:1054F400000000007F40203E4141413E000000008A
:10550400003844447C4242423C0000000000000059
:105514003C420C30423C000000000000003F42428C
:10552400423E02221C00000000003E417F40413EFA
:1055340000000000000000492A1C2A2A490000003B
:10554400000000003E410E02413E00000000000049
:105554000066222222261B000000000408006622A6
:105564002222261B000000000000006624382424A8
:105574006300000000000000070A0A121263000022
:1055840000000000002236362A22630000000000DA
:10559400000063223E222277000000000000003E4B
:1055A400414141413E000000000000006C322222D3
:1055B4002277000000000000007E212121213E20EE
:1055C4007000000000003E414040413E00000000E9
:1055D400000000742A2A2A2A6B0000000000000040
:1055E400772222221E02221C000000001C083E49D1
:1055F40049493E081C000000000077221C1C227749
:105604000000000000000066222222261B01010087
:10561400000000007722221E0207000000000000A4
:10562400006B2A2A2A2A3E000000000000006B2A90
:105634002A2A2A3F0101000000000070505E111167
:105644001E00000000000000E242724A4AF200001C
:10565400000000000070203E21217E0000000000B8
:1056640000003E410F01413E0000000000000066C2
:105674002939292966000000000000001F22221E8B
:105684001233000043616C6962726174696F6E2E3B
:1056940020596F752077696C6C2062652070726F79
:1056A4006D7074656420746F20636C69636B206F24
:1056B4006E203520646F747320286F6E20746865C3
:1056C40020656467657320616E6420696E20746868
:1056D400652063656E746572206F6620746865204A
:1056E400646973706C6179292E2047657420726532
:1056F4006164792E00000000436865636B696E671E
:105704002063616C6962726174696F6E207061728A
:10571400616D65746572732E20596F752077696C9D
:105724006C2062652070726F6D7074656420746F94
:1057340020636C69636B206F6E2074776F20646FD5
:1057440074732028746F7020616E6420626F7474A7
:105754006F6D206F662074686520646973706C6176
:1057640079292E204765742072656164792E0000C2
:1057740043616C6962726174696F6E204F4B2100E2
:1057840043616C6962726174696F6E204572726FF5
:10579400722100004578697400000000596F75207B
:1057A4006172652061207265616C20617274697335
:1057B400742100006D73202020200000202020741C
:1057C400203D2000202020002054656D70203D20C5
:1057D400005245454E54206D616C6C6F63207375A7
:1057E40063636565646564002F6275696C642F6723
:1057F4006E752D746F6F6C732D666F722D73746D6F
:1058040033325F31322E332E72656C312E323032A8
:1058140034303932362D313731352F7372632F6E70
:1058240065776C69622F6E65776C69622F6C69624B
:10583400632F7374646C69622F72616E642E6300EB
:1058440030313233343536373839616263646566F2
:105854006768696A6B6C6D6E6F707172737475765C
:105864007778797A002C2066756E6374696F6E3A66
:105874002000617373657274696F6E202225732230
:10588400206661696C65643A2066696C652022252E
:1058940073222C206C696E65202564257325730A98
:1058A40000232D302B2000686C4C0065666745464C
:1058B4004700303132333435363738394142434486
:1058C4004546003031323334353637383961626316
:0458D40064656600A1
:0858D8001CACFF7F0100000081
:0458E000E5000008D7
:0458E400BD000008FB
:1058E8000024F400080D0000284B000820FF0000E9
:1058F8000011000278030000001000020A030000F3
:10590800002A0400000000002B0400000000002C06
:1059180000030000000100020500280000CF040079
:1059280000833000ED046403128100E803850179E7
:1059380000CB05392C00340200F7012000EA0200F0
:105948000000C0012600C1011100C502353E00C794
:1059580001BE00360100003A015500B102001B00EB
:10596800F201080026010100E00F1F1A180A0F06AD
:105978004587320A070207050000E10F00252705C1
:1059880010093A784D05180D383A1F00B70107007D
:10599800B6040A8227000035010100110002050043
:1059A8002900027803000000000000000300000046
:1059B800D0010020D800002000000000D001002005
:1059C80038020020A00200200000000000000000B3
:1059D80000000000000000000000000000000000BF
:1059E80000000000000000000000000000000000AF
:1059F800000000000000000000000000000000009F
:045A0800000000009A
:0400000508000E21C0
:00000001FF
